{
  "contractName": "Post",
  "abi": [
    {
      "inputs": [
        {
          "internalType": "string",
          "name": "_title",
          "type": "string"
        },
        {
          "internalType": "address",
          "name": "_author",
          "type": "address"
        },
        {
          "internalType": "string",
          "name": "_tag",
          "type": "string"
        },
        {
          "internalType": "string",
          "name": "_timestamp",
          "type": "string"
        },
        {
          "internalType": "string",
          "name": "_content",
          "type": "string"
        }
      ],
      "stateMutability": "nonpayable",
      "type": "constructor"
    },
    {
      "inputs": [],
      "name": "author",
      "outputs": [
        {
          "internalType": "address",
          "name": "",
          "type": "address"
        }
      ],
      "stateMutability": "view",
      "type": "function"
    },
    {
      "inputs": [],
      "name": "content",
      "outputs": [
        {
          "internalType": "string",
          "name": "",
          "type": "string"
        }
      ],
      "stateMutability": "view",
      "type": "function"
    },
    {
      "inputs": [
        {
          "internalType": "address",
          "name": "",
          "type": "address"
        }
      ],
      "name": "didLike",
      "outputs": [
        {
          "internalType": "bool",
          "name": "",
          "type": "bool"
        }
      ],
      "stateMutability": "view",
      "type": "function"
    },
    {
      "inputs": [],
      "name": "likeCount",
      "outputs": [
        {
          "internalType": "uint256",
          "name": "",
          "type": "uint256"
        }
      ],
      "stateMutability": "view",
      "type": "function"
    },
    {
      "inputs": [
        {
          "internalType": "uint256",
          "name": "",
          "type": "uint256"
        }
      ],
      "name": "likersAddresses",
      "outputs": [
        {
          "internalType": "address",
          "name": "",
          "type": "address"
        }
      ],
      "stateMutability": "view",
      "type": "function"
    },
    {
      "inputs": [
        {
          "internalType": "uint256",
          "name": "",
          "type": "uint256"
        }
      ],
      "name": "likes",
      "outputs": [
        {
          "internalType": "address",
          "name": "creator",
          "type": "address"
        },
        {
          "internalType": "uint256",
          "name": "likeCount",
          "type": "uint256"
        },
        {
          "internalType": "bool",
          "name": "isLiked",
          "type": "bool"
        }
      ],
      "stateMutability": "view",
      "type": "function"
    },
    {
      "inputs": [],
      "name": "postTitle",
      "outputs": [
        {
          "internalType": "string",
          "name": "",
          "type": "string"
        }
      ],
      "stateMutability": "view",
      "type": "function"
    },
    {
      "inputs": [],
      "name": "tag",
      "outputs": [
        {
          "internalType": "string",
          "name": "",
          "type": "string"
        }
      ],
      "stateMutability": "view",
      "type": "function"
    },
    {
      "inputs": [],
      "name": "timestamp",
      "outputs": [
        {
          "internalType": "string",
          "name": "",
          "type": "string"
        }
      ],
      "stateMutability": "view",
      "type": "function"
    },
    {
      "inputs": [],
      "name": "likePost",
      "outputs": [],
      "stateMutability": "nonpayable",
      "type": "function"
    },
    {
      "inputs": [],
      "name": "getPostDetails",
      "outputs": [
        {
          "internalType": "address",
          "name": "",
          "type": "address"
        },
        {
          "internalType": "string",
          "name": "",
          "type": "string"
        },
        {
          "internalType": "string",
          "name": "",
          "type": "string"
        },
        {
          "internalType": "string",
          "name": "",
          "type": "string"
        },
        {
          "internalType": "string",
          "name": "",
          "type": "string"
        },
        {
          "internalType": "uint256",
          "name": "",
          "type": "uint256"
        },
        {
          "internalType": "address[]",
          "name": "",
          "type": "address[]"
        }
      ],
      "stateMutability": "view",
      "type": "function"
    }
  ],
  "bytecode": "0x60806040523480156200001157600080fd5b5060405162001546380380620015468339818101604052810190620000379190620002ca565b846001908162000048919062000619565b50836000806101000a81548173ffffffffffffffffffffffffffffffffffffffff021916908373ffffffffffffffffffffffffffffffffffffffff16021790555082600390816200009a919062000619565b508160049081620000ac919062000619565b5060006002819055508060059081620000c6919062000619565b50505050505062000700565b6000604051905090565b600080fd5b600080fd5b600080fd5b600080fd5b6000601f19601f8301169050919050565b7f4e487b7100000000000000000000000000000000000000000000000000000000600052604160045260246000fd5b6200013b82620000f0565b810181811067ffffffffffffffff821117156200015d576200015c62000101565b5b80604052505050565b600062000172620000d2565b905062000180828262000130565b919050565b600067ffffffffffffffff821115620001a357620001a262000101565b5b620001ae82620000f0565b9050602081019050919050565b60005b83811015620001db578082015181840152602081019050620001be565b60008484015250505050565b6000620001fe620001f88462000185565b62000166565b9050828152602081018484840111156200021d576200021c620000eb565b5b6200022a848285620001bb565b509392505050565b600082601f8301126200024a5762000249620000e6565b5b81516200025c848260208601620001e7565b91505092915050565b600073ffffffffffffffffffffffffffffffffffffffff82169050919050565b6000620002928262000265565b9050919050565b620002a48162000285565b8114620002b057600080fd5b50565b600081519050620002c48162000299565b92915050565b600080600080600060a08688031215620002e957620002e8620000dc565b5b600086015167ffffffffffffffff8111156200030a5762000309620000e1565b5b620003188882890162000232565b95505060206200032b88828901620002b3565b945050604086015167ffffffffffffffff8111156200034f576200034e620000e1565b5b6200035d8882890162000232565b935050606086015167ffffffffffffffff811115620003815762000380620000e1565b5b6200038f8882890162000232565b925050608086015167ffffffffffffffff811115620003b357620003b2620000e1565b5b620003c18882890162000232565b9150509295509295909350565b600081519050919050565b7f4e487b7100000000000000000000000000000000000000000000000000000000600052602260045260246000fd5b600060028204905060018216806200042157607f821691505b602082108103620004375762000436620003d9565b5b50919050565b60008190508160005260206000209050919050565b60006020601f8301049050919050565b600082821b905092915050565b600060088302620004a17fffffffffffffffffffffffffffffffffffffffffffffffffffffffffffffffff8262000462565b620004ad868362000462565b95508019841693508086168417925050509392505050565b6000819050919050565b6000819050919050565b6000620004fa620004f4620004ee84620004c5565b620004cf565b620004c5565b9050919050565b6000819050919050565b6200051683620004d9565b6200052e620005258262000501565b8484546200046f565b825550505050565b600090565b6200054562000536565b620005528184846200050b565b505050565b5b818110156200057a576200056e6000826200053b565b60018101905062000558565b5050565b601f821115620005c95762000593816200043d565b6200059e8462000452565b81016020851015620005ae578190505b620005c6620005bd8562000452565b83018262000557565b50505b505050565b600082821c905092915050565b6000620005ee60001984600802620005ce565b1980831691505092915050565b6000620006098383620005db565b9150826002028217905092915050565b6200062482620003ce565b67ffffffffffffffff81111562000640576200063f62000101565b5b6200064c825462000408565b620006598282856200057e565b600060209050601f8311600181146200069157600084156200067c578287015190505b620006888582620005fb565b865550620006f8565b601f198416620006a1866200043d565b60005b82811015620006cb57848901518255600182019150602085019450602081019050620006a4565b86831015620006eb5784890151620006e7601f891682620005db565b8355505b6001600288020188555050505b505050505050565b610e3680620007106000396000f3fe608060405234801561001057600080fd5b50600436106100a95760003560e01c80637e9dffe6116100715780637e9dffe6146101485780638a4d5a671461017a578063a6c3e6b914610198578063b80777ea146101b6578063e5a0af3d146101d4578063e654266e146101f2576100a9565b80632f23f022146100ae5780634f1270f2146100b857806351f91066146100dc5780636f89b85a146100fa57806371c3f01f1461012a575b600080fd5b6100b6610222565b005b6100c0610356565b6040516100d39796959493929190610b2f565b60405180910390f35b6100e461065f565b6040516100f19190610bc1565b60405180910390f35b610114600480360381019061010f9190610c14565b6106ed565b6040516101219190610c5c565b60405180910390f35b61013261070d565b60405161013f9190610bc1565b60405180910390f35b610162600480360381019061015d9190610ca3565b61079b565b60405161017193929190610cd0565b60405180910390f35b610182610802565b60405161018f9190610bc1565b60405180910390f35b6101a0610890565b6040516101ad9190610d07565b60405180910390f35b6101be6108b4565b6040516101cb9190610bc1565b60405180910390f35b6101dc610942565b6040516101e99190610d22565b60405180910390f35b61020c60048036038101906102079190610ca3565b610948565b6040516102199190610d07565b60405180910390f35b60001515600660003373ffffffffffffffffffffffffffffffffffffffff1673ffffffffffffffffffffffffffffffffffffffff16815260200190815260200160002060009054906101000a900460ff1615151461027f57600080fd5b6001600660003373ffffffffffffffffffffffffffffffffffffffff1673ffffffffffffffffffffffffffffffffffffffff16815260200190815260200160002060006101000a81548160ff0219169083151502179055506001600260008282546102ea9190610d6c565b925050819055506007339080600181540180825580915050600190039060005260206000200160009091909190916101000a81548173ffffffffffffffffffffffffffffffffffffffff021916908373ffffffffffffffffffffffffffffffffffffffff160217905550565b60006060806060806000606060008054906101000a900473ffffffffffffffffffffffffffffffffffffffff166001600360046005600254600785805461039c90610dcf565b80601f01602080910402602001604051908101604052809291908181526020018280546103c890610dcf565b80156104155780601f106103ea57610100808354040283529160200191610415565b820191906000526020600020905b8154815290600101906020018083116103f857829003601f168201915b5050505050955084805461042890610dcf565b80601f016020809104026020016040519081016040528092919081815260200182805461045490610dcf565b80156104a15780601f10610476576101008083540402835291602001916104a1565b820191906000526020600020905b81548152906001019060200180831161048457829003601f168201915b505050505094508380546104b490610dcf565b80601f01602080910402602001604051908101604052809291908181526020018280546104e090610dcf565b801561052d5780601f106105025761010080835404028352916020019161052d565b820191906000526020600020905b81548152906001019060200180831161051057829003601f168201915b5050505050935082805461054090610dcf565b80601f016020809104026020016040519081016040528092919081815260200182805461056c90610dcf565b80156105b95780601f1061058e576101008083540402835291602001916105b9565b820191906000526020600020905b81548152906001019060200180831161059c57829003601f168201915b505050505092508080548060200260200160405190810160405280929190818152602001828054801561064157602002820191906000526020600020905b8160009054906101000a900473ffffffffffffffffffffffffffffffffffffffff1673ffffffffffffffffffffffffffffffffffffffff16815260200190600101908083116105f7575b50505050509050965096509650965096509650965090919293949596565b6003805461066c90610dcf565b80601f016020809104026020016040519081016040528092919081815260200182805461069890610dcf565b80156106e55780601f106106ba576101008083540402835291602001916106e5565b820191906000526020600020905b8154815290600101906020018083116106c857829003601f168201915b505050505081565b60066020528060005260406000206000915054906101000a900460ff1681565b6001805461071a90610dcf565b80601f016020809104026020016040519081016040528092919081815260200182805461074690610dcf565b80156107935780601f1061076857610100808354040283529160200191610793565b820191906000526020600020905b81548152906001019060200180831161077657829003601f168201915b505050505081565b600881815481106107ab57600080fd5b90600052602060002090600402016000915090508060000160009054906101000a900473ffffffffffffffffffffffffffffffffffffffff16908060010154908060020160009054906101000a900460ff16905083565b6005805461080f90610dcf565b80601f016020809104026020016040519081016040528092919081815260200182805461083b90610dcf565b80156108885780601f1061085d57610100808354040283529160200191610888565b820191906000526020600020905b81548152906001019060200180831161086b57829003601f168201915b505050505081565b60008054906101000a900473ffffffffffffffffffffffffffffffffffffffff1681565b600480546108c190610dcf565b80601f01602080910402602001604051908101604052809291908181526020018280546108ed90610dcf565b801561093a5780601f1061090f5761010080835404028352916020019161093a565b820191906000526020600020905b81548152906001019060200180831161091d57829003601f168201915b505050505081565b60025481565b6007818154811061095857600080fd5b906000526020600020016000915054906101000a900473ffffffffffffffffffffffffffffffffffffffff1681565b600073ffffffffffffffffffffffffffffffffffffffff82169050919050565b60006109b282610987565b9050919050565b6109c2816109a7565b82525050565b600081519050919050565b600082825260208201905092915050565b60005b83811015610a025780820151818401526020810190506109e7565b60008484015250505050565b6000601f19601f8301169050919050565b6000610a2a826109c8565b610a3481856109d3565b9350610a448185602086016109e4565b610a4d81610a0e565b840191505092915050565b6000819050919050565b610a6b81610a58565b82525050565b600081519050919050565b600082825260208201905092915050565b6000819050602082019050919050565b610aa6816109a7565b82525050565b6000610ab88383610a9d565b60208301905092915050565b6000602082019050919050565b6000610adc82610a71565b610ae68185610a7c565b9350610af183610a8d565b8060005b83811015610b22578151610b098882610aac565b9750610b1483610ac4565b925050600181019050610af5565b5085935050505092915050565b600060e082019050610b44600083018a6109b9565b8181036020830152610b568189610a1f565b90508181036040830152610b6a8188610a1f565b90508181036060830152610b7e8187610a1f565b90508181036080830152610b928186610a1f565b9050610ba160a0830185610a62565b81810360c0830152610bb38184610ad1565b905098975050505050505050565b60006020820190508181036000830152610bdb8184610a1f565b905092915050565b600080fd5b610bf1816109a7565b8114610bfc57600080fd5b50565b600081359050610c0e81610be8565b92915050565b600060208284031215610c2a57610c29610be3565b5b6000610c3884828501610bff565b91505092915050565b60008115159050919050565b610c5681610c41565b82525050565b6000602082019050610c716000830184610c4d565b92915050565b610c8081610a58565b8114610c8b57600080fd5b50565b600081359050610c9d81610c77565b92915050565b600060208284031215610cb957610cb8610be3565b5b6000610cc784828501610c8e565b91505092915050565b6000606082019050610ce560008301866109b9565b610cf26020830185610a62565b610cff6040830184610c4d565b949350505050565b6000602082019050610d1c60008301846109b9565b92915050565b6000602082019050610d376000830184610a62565b92915050565b7f4e487b7100000000000000000000000000000000000000000000000000000000600052601160045260246000fd5b6000610d7782610a58565b9150610d8283610a58565b9250828201905080821115610d9a57610d99610d3d565b5b92915050565b7f4e487b7100000000000000000000000000000000000000000000000000000000600052602260045260246000fd5b60006002820490506001821680610de757607f821691505b602082108103610dfa57610df9610da0565b5b5091905056fea26469706673582212202066a9e2c5365faa65e1f53c8d564990fbc3f245b0a8c31dfba42f16afe45b3364736f6c63430008100033",
  "immutableReferences": {},
  "source": "// SPDX-License-Identifier: MIT\npragma solidity ^0.8.16;\n\ncontract Post {\n    address public author;\n    string public postTitle;\n    uint256 public likeCount;\n    string public tag;\n    string public timestamp;\n    string public content;\n\n    mapping(address => bool) public didLike;\n\n    address[] public likersAddresses;\n\n    struct Likers {\n        address creator;\n        uint256 likeCount;\n        bool isLiked;\n        mapping(address => bool) likes;\n    }\n\n    Likers[] public likes;\n\n    constructor(\n        string memory _title,\n        address _author,\n        string memory _tag,\n        string memory _timestamp,\n        string memory _content\n    ) {\n        postTitle = _title;\n        author = _author;\n        tag = _tag;\n        timestamp = _timestamp;\n        likeCount = 0;\n        content = _content;\n    }\n\n    function likePost() public {\n        require(didLike[msg.sender] == false);\n\n        didLike[msg.sender] = true;\n        likeCount += 1;\n        likersAddresses.push(msg.sender);\n    }\n\n    function getPostDetails()\n        public\n        view\n        returns (\n            address,\n            string memory,\n            string memory,\n            string memory,\n            string memory,\n            uint256,\n            address[] memory\n        )\n    {\n        return (\n            author,\n            postTitle,\n            tag,\n            timestamp,\n            content,\n            likeCount,\n            likersAddresses\n        );\n    }\n}\n",
  "sourcePath": "/Users/davidrakosi/GitHub/bts-blog-app-infura/contracts/Post.sol",
  "compiler": {
    "name": "solc",
    "version": "0.8.16+commit.07a7930e.Emscripten.clang"
  },
  "schemaVersion": "3.4.9",
  "updatedAt": "2022-09-20T02:23:00.506Z",
  "devdoc": {
    "kind": "dev",
    "methods": {},
    "version": 1
  },
  "userdoc": {
    "kind": "user",
    "methods": {},
    "version": 1
  }
}